:020000040800F2
:100000000000011081AA0708391C00087D6C020855
:1000100021AB070821AB070821AB0708000000004F
:100020000000000000000000000000005143000834
:1000300055430008000000005943000831C700087C
:1000400021AB070821AB070821AB070821AB070844
:1000500021AB070821AB0708299300082D9300085E
:1000600021AB07083193000835930008A12100084F
:10007000B5210008C9210008DD210008F121000890
:10008000052200081922000821AB070821AB070848
:1000900021AB070821AB070821AB070839930008FB
:1000A0004D200008752000089D2000083920000818
:1000B000C5200008D9200008ED20000821AB070862
:1000C00021AB070821AB070821AB070821AB0708C4
:1000D00021AB07083D1C0008491C0008551C0008FE
:1000E0003D93000821AB07085D4300082921000863
:1000F0005121000879210008152100082922000853
:1001000021AB070821AB07080121000821AB070834
:10011000611C00086D1C000821AB070821AB070813
:100120003922000849220008592200086D220008DF
:100130008122000821AB070821AB070821AB070883
:1001400021AB070821AB070821AB0708A94300082A
:1001500095220008A9220008BD220008791C000889
:1001600021AB070821AB070821AB070821AB070823
:1001700021AB070821AB070821AB070821AB070813
:0801800021AB070821AB0708C1
:10019000D0E907239A423CBFC1685218D01A704771
:1001A000D0E9092300699A4238BF1218D31A0138DE
:1001B000C01A7047D0E90902101AB0FA80F040095D
:1001C000704700BF0246036A4069D168C05C0133D2
:1001D0008B4228BF00231362704700BF436A8269C5
:1001E000D154436A0169426B01338B4228BF00231B
:1001F0004362D36843F08003D3607047436B188831
:1002000010F0100002D01A889B880120704700BFB0
:10021000436B99891A88890610B504460AD592B2AB
:10022000900607D5E26A002A2AD09888216B80B20E
:100230009047636B99891A88090692B210D5100607
:100240000ED5D4E909128A4215D0A1692069895CCA
:100250000132C9B29980B2FBF0F100FB1122A26217
:10026000998A1A88C90592B204D5D20744BF4FF6BD
:10027000F7721A8010BDDA6822F08002DA60EFE7C8
:100280009B88E2696169DBB28B54E269E168636B68
:100290000132B2FBF1F001FB1022E261CAE700BFBC
:1002A000036942681F2B10B40AD95468A3F1200CCB
:1002B000202101FA0CF1214207D15DF8044B70476F
:1002C0001468202199402142F7D081690024C86830
:1002D0000C7480684C68016821F00101016020689D
:1002E00094F805C00C4C818934F81C4089B221EA8D
:1002F00004011F2B818107D9A3F1200120238B400A
:100300005DF8044BD3607047202101FA03F35DF8D8
:10031000044B9360704700BFC4D9070882B009221C
:10032000274B8DF80720DA68D00319D4DA68D10694
:1003300040D4DA68D20541D4DA6812F0E00F3BD13C
:10034000DB6813F0020F0CBF092308238DF8073078
:100350009DF80730012B0AD09DF8070002B07047C6
:1003600001238DF807309DF80730012BF4D1144A92
:1003700012E0D368DB0519D4D36813F0E00F17D16E
:10038000D36813F0020F0CBF092308238DF8073040
:100390009DF80730012BDFD1D168C8034FF001036E
:1003A000F4D4D368D906E4D50623EFE70223EDE7BA
:1003B0000723EBE70623D4E70723D2E70223D0E79E
:1003C000003C0240024B01F001011970704700BF70
:1003D00000000020704700BF704700BF704700BF9B
:1003E00001207047034B18685B68C01AC0F30A000D
:1003F000704700BF68220020064B986800B970471C
:100400009B68052B03D1044B1878C0B270470020BD
:10041000704700BF6822002000000020012380F800
:1004200049307047054BD8681B69984234BF03F1C7
:10043000FF3303F2FF73181A704700BF68220020D1
:1004400010B5D0F8E83504461B699847032384F8B3
:100450001231002010BD00BF08B5042290F812111F
:10046000D0F8E83580F8131180F81221DB6898473E
:10047000002008BD08B5D0F8E435DB6903B1984722
:10048000002008BD08B5D0F8E4351B6A9847002065
:1004900008BD00BF08B5D0F8E4355B6A9847002076
:1004A00008BD00BF10B5064C6068FF2806D005499E
:1004B0004A69183100F040F8FF236360002010BD46
:1004C0000000002068220020432301480B80704771
:1004D00008000020122301480B8070474C000020C8
:1004E000042301480B80704760000020704700BF64
:1004F000704700BF704700BF704700BF704700BF24
:10050000014B00229A60704768220020704700BFAC
:10051000054B002005229A601862186058625860E6
:1005200083F82800704700BF68220020014B00209C
:100530009860704768220020212838B50C4621D0E9
:10054000222813D020280FD171B1072A0CD1144DC5
:100550006B6A13B10968002098472168A288A379C3
:10056000E9622A8685F83230002038BD0029FBD0A8
:10057000022AF9D10A4A136A002BF5D00988506B78
:100580009847F1E70029EFD0072AEDD1044BDA6A4A
:100590000A601A8E8A8093F832308B71E4E700BFCC
:1005A000682200202DE9F843194D2C68C4F5006835
:1005B00088450E46074619D305F1380020443946D0
:1005C00032467CF0BFFD3444C4F30A042C606B68EF
:1005D00003F2FF731B1BC3F30A03802B9DBF012390
:1005E00085F8283002200020BDE8F88305F138099D
:1005F000014609EB0400A4F50064424634447CF053
:10060000A1FD07EB0801224648467CF09BFDDDE793
:1006100068220020704700BF704700BFD0ED007A0D
:10062000D0ED036A30EE677AE6EE877AB0EE670ABD
:10063000C0ED007A704700BF90ED017AB5EE407AC8
:10064000F1EE10FAF0EE407A09D19FED0D7A60EEEE
:10065000870AF7EE006A86EEA07A80ED017A31EE25
:10066000077A90ED000A80ED021AC1EE076A77EE74
:10067000C07AC0ED036AA6EEA70A80ED000A7047B3
:10068000DB0FC940D0ED056AD0ED017A90ED066A26
:10069000D0ED025A90ED035AC0ED066AB0EE407AF2
:1006A00026EEA70AD0ED007A80ED057AA7EE870A3C
:1006B000D0ED077AA5EE860A90ED086AD0ED045ACF
:1006C000C0ED087AA5EE670AA5EEC60A80ED070A16
:1006D000704700BFF0EE406AD0ED007A90ED050A59
:1006E00090ED037A90ED016AD0ED025AA7EEA60ACA
:1006F000D0ED047A27EE407A67EEC07AA6EE267A2D
:10070000E5EEA67A90ED066AC0ED067A36EE076A47
:1007100080ED056A704700BF03685A1C02601970BB
:10072000704700BF2DE9F04FD0E90031856889B0EE
:100730004A1C00EB81045918F1EE407A0591002D16
:1007400092FBF3F103FB1122426000F1800A84ED79
:10075000200AC4ED407A00F5807240F38780691C5E
:10076000012603F1FF3B06914FF002090795B646BB
:100770000599A1EB090090FBF3F103FB1100411C6B
:1007800091FBF3F403FB14110AEB800802EB800CDD
:10079000F14501EB0E00D8ED006A90FBF3F49CEDFF
:1007A000006AA3EB090603FB140055DDCDE90198AF
:1007B000CDE903C637460D46044641E0AB420AEB9D
:1007C000840902EB840804F1010441DD0AEB850C85
:1007D00002EB85060135DCED007AD8ED005A96ED86
:1007E000007AF4EEE67AF1EE10FA0FDD99ED005A98
:1007F000F4EEC57AF1EE10FA08DDB4EEE65AF1EE49
:1008000010FA58BFF0EE456ACCED006AB4EEC67A35
:10081000F1EE10FA0DDDB4EEE57AF1EE10FA08DD36
:10082000F4EEC65AF1EE10FA58BFB0EE656A86EDE6
:10083000006A01375F4530DAB0EE476AF0EE676A6A
:10084000A342BBDCAB429046D1464FF00104BDDC75
:100850001646D4460125BEE706990EF1010E7145F4
:1008600009F102090BF1FF3B82D1079D0599491B54
:1008700091FBF3F003FB10130AEB830102EB8303FC
:1008800091ED000A93ED007A30EE470AF6EE007A19
:1008900020EE270A09B0BDE8F08FDDE90198DDE917
:1008A00003C698ED006ADCED006A41E08B420AEB7A
:1008B000800C02EB800700F1010041DD0AEB8105AD
:1008C00002EB81040131D5ED007AD7ED005A94EDA9
:1008D000007AF4EEC67AF1EE10FA0FD59CED005ACC
:1008E000F4EEC57AF1EE10FA08D5B4EEC65AF1EE80
:1008F00010FAD8BFB0EE456A85ED006AB4EEE67A2C
:10090000F1EE10FA0DD5B4EEE57AF1EE10FA08D555
:10091000F4EEE65AF1EE10FAD8BFF0EE656AC4EDD7
:10092000006A01365E4597DAF0EE476AB0EE676A14
:100930008342BBDC8B421746D4464FF00100BDDC3E
:10094000144655460121BEE703685A1C026019701F
:10095000704700BF024BD3F8380803681B6818477C
:1009600068220020007970470079C0F3401070477A
:1009700000794009704700BF90F83C20034602F020
:10098000FF0012B1002283F83C2070474FF400634F
:10099000838170472DE9F84345697DB90768C7F33E
:1009A0000D0804460E46B8F1000F0AD0D6F80080B4
:1009B000FFF7B4FC09283BD06FF001052846BDE8DD
:1009C000F883514B9F422AD303F580439F4224D39F
:1009D00003F580439F427FD34C4B9F427FD903F561
:1009E00080339F427ED903F500339F427DD903F5C2
:1009F00000339F427CD903F500339F4269D903F548
:100A000000339F4277D903F580239F4276D9B7F10F
:100A1000016F76D305200CF00BFC4FF00808FFF7B0
:100A20007DFC092821D04FF0FF352846BDE8F8832A
:100A3000374E336923F440733361336943F40073F1
:100A40003361336943F001033361C7F80080FFF776
:100A500065FC3369092823F001033361ACD12368B5
:100A6000043323602846BDE8F883DFF8A490D9F862
:100A7000103023F44073C9F81030D9F8103043F423
:100A80000073C9F81030D9F8103023F0F803C9F812
:100A90001030D9F8103043EA080343F00203C9F8D4
:100AA0001030D9F8103043F48033C9F81030FFF714
:100AB00035FCD9F8103023F00203C9F81030D9F80A
:100AC0001030092823F0F803C9F810303FF46EAF56
:100AD000A9E74FF03808A2E74FF010089FE74FF062
:100AE00018089CE74FF0200899E74FF0280896E790
:100AF0004FF0300893E74FF0400890E74FF0480878
:100B00008DE74FF058088AE700400008FFFF000813
:100B1000003C02402DE9F0410446D0E90030134486
:100B200083421DD80D4601EB0208B2B104F10C0757
:100B3000002601E0A84510D023695A1C22612344F5
:100B400015F8011B1973042AF4D139462046FFF722
:100B500021FFA845C4E90460EED16069BDE8F081D9
:100B60004FF0FF30FAE700BF2DE9F843234E8146EE
:100B7000D6F83C780A4604E0D6F83C38DB1B322B2A
:100B800039D896F84038002BF6D192B34A4402F196
:100B9000FF3809F1FF39F36832690133C3F30A03FF
:100BA0009A4219D1D6F83C38DB1B322B23D80BF0F4
:100BB0000BFE04460D460BF007FE001B61EB050122
:100BC000B0F57A7F71F10001F5D3F3683269013332
:100BD000C3F30A039342E5D0F268F36819F8011FE2
:100BE00032440133C3F30A03C14582F84418F36069
:100BF000D1D1002000E00220BDE8F8836822002067
:100C0000F8B50E4EB36803B9F8BDB368052BFBD138
:100C10000B4B1B78002BF7D0002AD6F83C780D46FA
:100C20001446F1DD21462846FFF79EFFD6F83C38F2
:100C30000028E9D0DB1B322BF4D9F8BD6822002054
:100C4000000000202DE9F047544E1F4606EB8003BC
:100C50009C68002C00F09E8004F13E03A36104F523
:100C60009F73E3614FF48073C4E90433283623682B
:100C700066600546E16094F83D00A363914608F084
:100C8000D9FB804694F8440294F83CA0261D002825
:100C900052D194F8450250BBD4F840326BBB3B07AD
:100CA00031D419F0020F5BD119F0010F47D1D4F8FC
:100CB000483294F9471294F847221B010029DBB20D
:100CC0000DDB3749881880F800335009012302F002
:100CD0001F02934041F820303046BDE8F08731498B
:100CE00002F00F02114430460B76BDE8F08770F039
:100CF0009FFBD4F84032002BD1D02B4A116B0B4311
:100D000013633B07CDD50135EDB207F01003B8F101
:100D1000000FCCD040F2067288F80850A8F80620E0
:100D200094F846228BBB17F0200F0CBF3221122102
:100D3000404608F079FDBAE770F07AFBA9E7504623
:100D400008F078FB0135EDB20028B0D040F2066221
:100D50000572C28094F84622022108F065FDA6E7DC
:100D60006B1CDBB2B8F1000F9ED088F8083040F25F
:100D70000653A8F8063094F846224046022108F0AF
:100D800053FD19F0010F92D0D9E70221404608F037
:100D90004BFD8CE726463046BDE8F087C4D90708EE
:100DA00000E100E0FCEC00E0003802402DE9F047F3
:100DB000038A8489A4B21C4082B047D08146884609
:100DC0004FF0004501F14C0701F13406B4FA84F309
:100DD00025FA03F2D24391B2A9F8101014401B3B3C
:100DE000B8F1000F5FD0042B2ED8DFE803F0524893
:100DF0003D320300D8F80C30D9F82CA033B19B68F1
:100E000023B11FFA8AF108F104009847D8F824307A
:100E100033B19B6823B11FFA8AF108F11C0098478F
:100E2000D8F83C3033B19B6823B11FFA8AF108F13E
:100E300034009847D8F8543033B19B6823B11FFA77
:100E40008AF108F14C009847002CBFD102B0BDE8F0
:100E5000F087D8F80C30D9F834105B6808F104003A
:100E60009847002CB2D1F1E7D8F82430D9F83810DF
:100E70005B6808F11C009847002CA7D1E6E7D8F87A
:100E80003C30D9F83C105B6830469847002C9DD127
:100E9000DCE7D8F85430D9F840105B6838469847FA
:100EA000002C93D1D2E7042B07D8DFE803F0190315
:100EB000140F0A00D9F83C300193019B002C85D116
:100EC000C4E7D9F82C300193019BF7E7D9F8343007
:100ED0000193019BF2E7D9F838300193019BEDE7CC
:100EE000D9F840300193019BE8E700BF10B50446F4
:100EF00029B990F81121032A0DD0002010BDD0F897
:100F0000E4359B69002BF8D090F81221032AF4D124
:100F10009847002010BDD0F890230B46D0F87C13E2
:100F20008A4219D9521AC0F8902394F803C0D0F815
:100F300080038A4228BF0A46BCF1010F92B234D026
:100F4000C4E9E22304F55D71C4F88003A4F87433A6
:100F5000204678F041FCD0E7D0F8E4351B691BB19E
:100F600090F81221032A1ED000234FF4807204212E
:100F7000C4E94A33C4E94C3384F81111A4F81C21A4
:100F800004F58E71204678F027FC636D0D4A1A61D6
:100F9000E278012AB1D104F2CC545C614FF0802296
:100FA00019681A60A9E79847DEE70844C4E9E22314
:100FB00004F55D71C4F88003A4F87433C4F88403A5
:100FC000C6E700BF1800086038B5044649B990F874
:100FD0001131022B11D094F81631012B39D0002099
:100FE00038BDD0F8E4355B69002BF8D090F81221B9
:100FF000032AF4D19847002038BDD0F83831D0F812
:10100000242193422FD990F803C09B1ABCF1010F01
:101010000D46C0F83831D0F828116ED09BB2C0F818
:1010200030314FF48073C0E94A11C0F8345100F5F3
:101030008E71A0F81C3178F0CFFBC4E9E255C4F8FA
:10104000805304F55D71A4F87453204678F0C4FB16
:10105000C1E73F4B226953F8B41C5160002384F868
:101060001631002038BDD0F83C31B3FBF2F502FB5D
:1010700015350DBB9A421FD8D0F8402193421BD2A0
:101080004FF48073A0F81C3100F58E71C0E94A5509
:10109000C0E94C5578F0A0FBE378C4F84051012B2F
:1010A000C4E9E255C4F88053A4F8745308BFC4F8E7
:1010B000845304F55D71C8E7D4F8E435DB681BB1EF
:1010C00094F81221032A15D0E27800230521012A81
:1010D00084F81111C4E9E233C4F88033A4F87433FE
:1010E00004F55D7124D0204678F076FB636D194AD3
:1010F0001A6170E720469847E6E79BB21144C0F8B2
:1011000030314FF48073C0E94A11C0F8345100F512
:101110008E71A0F81C3178F05FFBC4E9E255C4F889
:10112000805304F55D71A4F87453C4F884538CE7BC
:10113000C4F88433204678F04FFB636D054818618E
:1011400004F2CC525A614FF080211A68196042E7CC
:10115000603300201800086070B5264C00256368D5
:1011600022689A421FD0626863680133C3F30A039E
:1011700063606168236894F82830224492F83850FC
:101180000BB9284670BD01266368226803F2FF731D
:101190009B1AC3F30A03802B0BD8002EF1D163688E
:1011A00022689A42DFD194F82830002BD7D000264D
:1011B000EAE7114B13F8AD1C002201290F4984F80E
:1011C00028204FF04000C3F804234FF00102A3F899
:1011D000EC22C3F8000303F24452A1F5677008BF84
:1011E000C3F8FC22C3F8F82278F058FB002ED6D0C2
:1011F000C7E700BF68220020603300204C36002083
:10120000F8B5244C94F84028012A034603D0022A5A
:1012100009D00020F8BD204ED6F884558DB984F849
:1012200040580020F8BD002540F20112C0E9545595
:10123000C0E95655A0F8442100F5A27178F02EFBC4
:10124000EDE7402D1DD940272169144AC3F8587194
:101250000A44C3E9542240F20112A3F844210022B7
:10126000C3F85C2103F5A271184678F017FB2369D7
:101270003B44ED1BC3F30A032361C6F884550020E9
:10128000F8BDAAB2402A01D02F46DDE7022284F839
:101290004028D8E76822002060330020AC2A0020D4
:1012A00001EB810138B500EBC1010E4DB1F88C1393
:1012B00004462846FFF776F988B9E378C4F8A853BE
:1012C00001214022012BC4E9EC20A4F89C1308BFA3
:1012D000C4F8AC5304F56771204678F0DFFA0020BB
:1012E00038BD00BFA4380020F8B5254CD4F88835A7
:1012F0000E2B04D80133C4F888350020F8BD214DE9
:1013000095F840380022C4F88825002BF5D12A69C9
:10131000EB689A42F1D02A69EB689A4229D92E6982
:10132000C6F50066402E28D8B3B2402B13BF37460F
:101330004027022301232A6985F84038124BC0F860
:1013400058711344C0E9543340F20113A0F84431FA
:101350000023C0F85C3100F5A27178F09FFA2B6988
:101360003B44F61BC3F30A032B61C4F884650020D9
:10137000F8BDEE682B69F61AD4E701234027DAE7B7
:101380006033002068220020AC2A002090F848300A
:101390005A1C0344D2B280F8482083F8341090F8E5
:1013A00049300BB1132A01D978F07CBB704700BFDC
:1013B000002280F8492078F075BB00BF2DE9F0418C
:1013C000B0F8CC15D0F8CE35B0F8D255B0F8D085FD
:1013D000C0F84051012284B080F8112101F01F02B1
:1013E000012A044600F2CC56ADF80810C1F3072ECE
:1013F000CDF80A30ADF80E504FEA134C51D0022A06
:101400007746C9B29BB210D0002A55D1BEF1090F60
:101410004BD8DFE81EF08900AD004A00C8004A0042
:101420005C01DF004A001301330101F06001202953
:101430005FFA8CF272D0012F00F0B881032F00F018
:10144000A181AFBB90F81231022B00F0E381032B96
:101450002BD11CF0800F40F0E98102EB820200EBFF
:10146000C20393F87623003A18BF0122C24D02232B
:101470004FF48071C4E94E3384F81131C4F830312F
:10148000A4F81C1105F5B3630021C4F83411C4E9B4
:101490004A3304F58E712046C5F8982578F09CF9FA
:1014A00006E090F81231032B0ED0204678F022F996
:1014B000002004B0BDE8F08101F0800178F052F91D
:1014C000002004B0BDE8F0815FFA8CFCBCF1010F94
:1014D000EBD8D0F8E43502A99B689847BDF80E30E8
:1014E000002BE5D1C4E94A33C4E94C3304214FF45D
:1014F000807284F81111A4F81C2104F58E71204625
:1015000078F06AF9636D9D4A1A61E278012ACFD1B9
:101510005E614FF0802219681A60C9E7D0F8E4359F
:1015200002A99B689847C3E790F81231023B012B50
:10153000BBD8914BD0F818210021C3F8941512B1F3
:101540000222C3F894258E4A02234FF480700021B2
:10155000C4E94C31A4F81C01C4E94E33C4E94A2261
:1015600084F8113104F58E71204678F035F99FE743
:1015700090F81221023A012A97D8012B98D1D0F87D
:10158000E43500259B68C0F8185102A99847042249
:101590004FF48073C4E94A55C4E94C5584F81121CD
:1015A000A4F81C31A9E7012B00F03B81022B7FF44A
:1015B0007FAF5FFA8CF3002B7FF47AAF03694FEAB9
:1015C0001C22023A5B68032A00F2BD81DFE802F0C8
:1015D000B6CED2D01E0A022EADF8065000F08A8197
:1015E000032E00F04E81012E7FF45FAFD0F8EC3572
:1015F00080781B680DF106019847BDF80630002B76
:101600003FF456AFBDF80E20002A3FF451AF93428D
:1016100028BF13464FF480720221A4F81C21002237
:10162000C4E94A0084F81111C4E94E33C4E94C32CC
:1016300004F58E71204678F0CFF839E7012D7FF45C
:1016400034AF90F81231022B00F00881032B7FF4A5
:101650002CAF4FF4807200F588730221A0F81C2192
:10166000002280F81111C0E94E55C0E94A33C0E9A3
:101670004C5200F58E7178F0AFF819E7DDB23E4FAD
:10168000012D87F88C553FF610AF90F81231022BE0
:1016900000F0D880032B7FF408AF002D00F03581D7
:1016A00090F81011012910D0D0F8E4355B68984704
:1016B00097F88C15D4F8E43584F810111B6820468F
:1016C0009847D4F8E8359B68984700230AE758EA1A
:1016D00005027FF4EAAE90F8121103293FF4E5AE5B
:1016E00003F07F0580F814510069114663F30A1175
:1016F000036819430423016084F811314FF48073A7
:10170000C4E94A22C4E94C22A4F81C3104F58E71C4
:10171000204678F061F8636D184A1A61E278012A70
:1017200006D0002D00F0FC80022384F81231BFE6C1
:101730005E614FF0802219681A60F2E702210E48BC
:1017400061F30613002240F8B43C0423C4E94A22A2
:10175000C4E94C2284F8113101224FF4807304F55E
:101760008E7184F81621A4F81C31C8E60321E6E73F
:101770000521E4E70421E2E7603300201800086057
:10178000F438002090F81211022943D003297FF485
:101790008CAE23B9510602D0114677F0E3FFD4F89E
:1017A000E4359B6802A9204698478EE790F812110D
:1017B00002292FD003297FF478AE002B7FF478AE76
:1017C00012F07F0181D01CF0800F40F0AD8002EB61
:1017D000820100EBC10181F8763381F8753328234B
:1017E00081F8742303FB020300EB820193F8772353
:1017F000496D0B68023A012A23F400138CBFC3F32E
:101800000072012262F31C73D4F8E4250B60936824
:1018100002A9C8E753063FF44BAE114677F0A2FF8A
:1018200046E6D0F8E425C0F81831F0E702F07F0270
:1018300002EB820200EBC20393F81E21003A18BFAC
:10184000012213E6002D3FF4A2AE01210322D0F8BD
:10185000E43580F8101180F812212FE73B4A80F818
:1018600011314FF480710023A0F81C11C0E94E55CE
:10187000C0E94A22C0E94C5300F58E7177F0ACFF05
:1018800016E6DBB2052B3FF610AEDFE803F02B23A4
:101890001B130B03D0F8EC3580789B690DF1060122
:1018A0009847AAE6D0F8EC3580785B690DF106011F
:1018B0009847A2E6D0F8EC3580781B690DF1060157
:1018C00098479AE6D0F8EC358078DB680DF1060190
:1018D000984792E6D0F8EC3580789B680DF10601C8
:1018E00098478AE6D0F8EC3580785B680DF1060100
:1018F000984782E6D0F8E43580789B6A0DF10601BE
:1019000098474670C4F8F00577E60222D0F8E4352F
:1019100080F8122180F810515B682946984736E616
:10192000012384F81231C3E5282202FB010080F86C
:101930001C1104EB810180F81E3180F81DE190F844
:101940001F21896955E70121F9E600BFF038002021
:1019500070B50B7813F060020D46044624D0202A9F
:1019600004D0204677F0C6FE022070BDCA884878B1
:101970001AB31B0640D5314E3146FEF7DDFDEB882C
:101980004FF480720221A4F81C21002284F8111166
:10199000C4E94E33C4E94A66C4E94C3204F58E7199
:1019A000204677F019FF06E04B780A2B10D00B2B5E
:1019B00008D0062BD5D0002070BD02221144FEF7BE
:1019C000BBFDF8E78B78B3BB1D4AC2F89C35F2E744
:1019D000022180F811114FF48071A0F81C111949EF
:1019E0000123C0E94A11C0E94E33C0E94C3200F589
:1019F0008E7177F0F1FEDEE71349144B4860E07812
:101A00005A610021183301284FF00305C4F88C13E4
:101A1000A4F87413C4E9E42284F81151C4F88823AB
:101A2000C4F8803304F55D7108BFC4F884332046E0
:101A300077F0D2FEBFE777F05DFEBCE780220020A2
:101A400060330020FC3800200000002068220020C5
:101A500070B5002540260446A0F87453C0F87C6396
:101A600080F8775300F55D7177F0E4FF4FF48073F1
:101A7000A4F81C3104F58E712046C4F8246184F862
:101A80001F51A4F8225177F0D5FFD4F8E835A0789B
:101A9000012284F812215B689847284670BD00BF78
:101AA0002DE9F04140F201130446012602254027AA
:101AB000A0F84431C0F84C71A0F84A61A0F8475131
:101AC00000F5A27104F5677877F0B4FF414620462F
:101AD000A4F89C63C4F8A473A4F89F5377F0AAFFFA
:101AE0004FF48173A4F86C310823C4F874310323D4
:101AF00084F86F3104F5B6712046A4F8725177F07E
:101B000099FF0D4BA3F85050FEF702FD0022C4F8D8
:101B1000B423E278094BC4F8A833B2422046C4F893
:101B2000B073A4F89C6308BFC4F8AC33414677F0A7
:101B3000B5FE0020BDE8F08100000020A4380020A0
:101B400038B50122044640F20113A0F844310125C2
:101B5000114677F057FF294620460022A4F89C53EF
:101B600077F050FF4FF48173A4F86C3120460221C6
:101B70002A4677F047FFFEF7D9FC002038BD00BFAA
:101B800008B502486FF0FAFB014808BD2C8208082E
:101B90000039002008B502486FF0F0FB014808BD8D
:101BA0003C8208080039002008B502486FF0E6FBC7
:101BB000014808BD448208080039002008B50248E1
:101BC0006FF0DCFB014808BD508208080039002096
:101BD00008B502486FF0D2FB014808BD5C820808D6
:101BE000003900201049114BD1F8882042F47002CE
:101BF00010B4C1F888201A680D4C002042F0010290
:101C00001A6098601A6822F0847222F480321A6096
:101C10005C601A68074C22F480221A60D8608C60DD
:101C20005DF8044B704700BF00ED00E00038024053
:101C30001030002400000008704700BF0148FEF784
:101C4000E7BA00BF680000200148FEF7E1BA00BF14
:101C5000B40200200148FEF7DBBA00BF00050020F7
:101C60000148FEF7D5BA00BF4C0700200148FEF737
:101C7000CFBA00BF980900200148FEF7C9BA00BFDB
:101C8000E40B0020704700BFB0B130B443688D68EA
:101C90005A791C68022393404A689BB26AB1A289B0
:101CA0009DB192B213438160A381A3899BB243F09B
:101CB0000103A38130BC70477047A28992B222EA27
:101CC0000303A38165B18160EFE722F001021204F2
:101CD000120CA281A289816092B21343A381E9E729
:101CE000A38923F001031B041B0CA3818160E1E79E
:101CF00030B40C4C0022234604E001320E2A03F1DA
:101D000014030CD093F804C08445F6D1DD68294251
:101D100001D10029F1D1142303FB024000E000208F
:101D200030BC70472C0E002038B5D0E9004007EEDB
:101D3000902A0068324A334B2468D3F8443F246821
:101D4000013990428DB210D002F5806290420CD0E1
:101D500002F57052904208D002F58062904204D0A1
:101D600002F58062904218BF5B0807EE103AF8EE69
:101D7000677AB8EE477ADFED246A87EE270A30EEFD
:101D8000260A79F073FE1E492388421E8C4292B2C5
:101D90009BB21AD01D498C4217D0B4F1804F1FD08E
:101DA000A1F580318C421BD001F580618C4217D0A7
:101DB00001F580618C4213D015498C4219D12380E2
:101DC0000123E5622285A38238BD23F45C739BB2B4
:101DD00023800023E562228523860123A38238BD68
:101DE00023F45C739BB223800123E5622285A382E6
:101DF00038BD08498C42E2D023F440739BB2DEE741
:101E000000000140000000200AD7233C00040140EC
:101E1000001000400014004070B54268937903F050
:101E2000020E13F004033AD175469C469E464FF4C9
:101E3000807001235479032C30D8DFE804F08E62DF
:101E400002361468704E228C22F480721204120C36
:101E50002284228C22F4007212042B43120CA588D7
:101E600042EA0322A38B23F073031B041B0CB4422E
:101E7000ADB243F0600300F09B8006F58066B4428B
:101E800000F09680A580A383E1632284A38B23F0D6
:101E900008031B041B0C43F00803A38370BD002040
:101EA00005464FF0040C0346C4E71268564E148CE6
:101EB00024F480542404240C1484148C24F400543A
:101EC00024042B43240C958844EA0334938B23F495
:101ED000E6431B041B0CB242ADB243F4C04375D0C1
:101EE00006F58066B24271D09580938311641484A4
:101EF000938B23F400631B041B0C43F40063938354
:101F000070BD1468404E228C22F010021204120C94
:101F10002284228C22F0200212042B43120CA5886A
:101F200042EA0312238B23F4E6431B041B0CB44246
:101F3000ADB243F4C04359D006F58066B44255D0E3
:101F4000A5802383A1632284238B23F400631B04D5
:101F50001B0C43F40063238370BD1268148C24F0BF
:101F600001042404240C1484148C968824F00204A4
:101F700024042B43240C1C43138B234D23F07303A5
:101F80001B041B0CAA42B6B243F0600323D005F534
:101F90008065AA421FD09680138351631484138BEB
:101FA00023F008031B041B0C43F00803138370BDCC
:101FB00022F4006242EA0E2222F4806292B225F4F8
:101FC000405542EA0C2245EA00155BE725F48045BE
:101FD00045EA801588E726F4407606434FF6F3700D
:101FE000204040EA0E0040EA0C04D4E722F08002D0
:101FF00042EA0E1222F0400292B225F4406542EA13
:102000000C1245EA80059BE70000014042685379C5
:10201000032B0FD8DFE803F00B08050210684030EF
:10202000704710683C30704710683830704710684F
:102030003430704700207047024B0348D3F8A01695
:10204000FEF7B4BE603300200000014010B5064C1E
:102050000648D4F8A016FEF7A9FED4F8C016044826
:10206000BDE81040FEF7A2BE603300200000014032
:102070000040014010B5064C0648D4F8A016FEF703
:1020800095FED4F8C4160448BDE81040FEF78EBE95
:1020900060330020000001400044014010B5064CB0
:1020A0000648D4F8A016FEF781FED4F8C8160448F6
:1020B000BDE81040FEF77ABE60330020000001400A
:1020C00000480140034B4FF08040D3F8A416FEF7C0
:1020D0006DBE00BF60330020024B0348D3F8A81642
:1020E000FEF764BE6033002000040040024B03484A
:1020F000D3F8AC16FEF75ABE60330020000800404B
:10210000024B0348D3F8B016FEF750BE60330020F0
:10211000000C0040024B0348D3F8BC16FEF746BE45
:10212000603300200004014010B5064C0648D4F886
:10213000BC16FEF73BFED4F8CC160448BDE81040B0
:10214000FEF734BE60330020000401400018004058
:1021500010B5064C0648D4F8BC16FEF727FED4F896
:10216000D0160448BDE81040FEF720BE60330020C2
:1021700000040140001C004010B5064C0648D4F88D
:10218000BC16FEF713FED4F8D4160448BDE8104080
:10219000FEF70CBE60330020000401400020004028
:1021A0000348D0F8543F13B100F648701847704701
:1021B000000000200348D0F8743F13B100F66870A7
:1021C00018477047000000200348D0F8943F13B12F
:1021D00000F6887018477047000000200348D0F8C8
:1021E000B43F13B100F6A8701847704700000020F4
:1021F0000348D0F8D43F13B100F6C87018477047B1
:10220000000000200348D0F8F43F13B100F6E87056
:102210001847704700000020024843690BB108309E
:1022200018477047001000200248436B0BB128305C
:1022300018477047001000200248436D0BB148302A
:1022400018477047001000200248436F0BB16830F8
:1022500018477047001000200348D0F894300BB1A5
:1022600088301847704700BF001000200348D0F89E
:10227000B4300BB1A8301847704700BF00100020E1
:102280000348D0F8D4300BB1C8301847704700BFAE
:10229000001000200348D0F8F4300BB1E8301847A4
:1022A000704700BF001000200348D0F8143113B16C
:1022B00000F5847018477047001000200348D0F8DC
:1022C000343113B100F594701847704700100020A6
:1022D00002683649002310B422F00102212488420A
:1022E0000260036043608360C3600361446138D06F
:1022F0002F4B98422ED02F4B98423CD02E4B9842D9
:1023000040D02E4B984232D02D4B984241D02D4B8D
:10231000984246D02C4B984217D02C4B98423CD038
:102320002B4B984216D02B4B984224D02A4B9842E4
:1023300028D02A4B98421AD0294B984229D0294BB1
:1023400098422ED0284B984208D14FF03D5243F886
:10235000AC2C03E04FF4746243F8202C5DF8044B7E
:102360007047224B5DF8044B3D229A607047204A2B
:1023700043F8642CF2E74FF474125DF8044B43F811
:10238000382C70474FF074625DF8044B43F8502CC2
:102390007047184A43F87C2CE0E73D2243F8082CAC
:1023A000DCE7154A43F8942CD8E700BF10600240E0
:1023B0002860024040600240586002407060024065
:1023C00088600240A0600240B86002401064024091
:1023D0002864024040640240586402407064024035
:1023E00088640240A0640240B86402400060024079
:1023F0003D000020400F002000003D20214A93684E
:1024000003F00C03042B10B43AD0082B1FD01E4B42
:102410001C4C0360A1681D4AC1F30311114491F8DB
:102420005C10CB404360A168C1F38221114491F854
:102430005C1023FA01F18160A1685DF8044BC1F3DF
:1024400042310A4492F85C20D340C360704753681D
:10245000516813F4800F536814BF0D4A0A4AC3F33E
:10246000881301F03F01B2FBF1F202FB03F3054ACE
:102470005268C2F3014201325200B3FBF2F3C7E7E4
:10248000034BC5E7003802400024F400C4D9070814
:1024900000127A0070B5446B8668A38923F4005358
:1024A0001B041B0CA381857990F805C02B0303F452
:1024B0000051C5F380000CF001032A029B001CF0C0
:1024C000020F4FEA003002F4806218BF43F00803A5
:1024D00002431A43238A9BB223F440530B432382C3
:1024E000A38923F4B05323F00C031B041B0C1343E8
:1024F000A381A38A23F440731B041B0C84B0A38222
:102500006846FFF77BFF234B9C4205D003F58063B1
:102510009C4201D0029B00E0039BA2891E49120449
:1025200003EB83034CBF7600B60003EB8303B3FBDE
:10253000F6F3A1FB0302A08952096426000406FBFE
:1025400012334FEA02121CD41B013233A1FB0313D6
:10255000C3F3431313439BB223812A07A38A0AD5EB
:102560009BB243F00803A382A3899BB243F40053B8
:10257000A38104B070BD23F008031B041B0CA382CD
:10258000F2E7DB003233A1FB0313C3F3421313431F
:10259000E1E700BF001001401F85EB512DE9F84332
:1025A000394C9DF820509DF82490A0420F4690464B
:1025B0001E4649D0354B98424ED0354B984253D0A9
:1025C000344B98422BD0344B984255D0334B9842E1
:1025D00021D14B462A4631460520FEF733FB0446FF
:1025E0000023C4E90B78C4E90733C4E909336571F2
:1025F000A66084F806902046FFF74CFFEA07616B5F
:102600001AD4AB0713D48B899BB243F400538B814C
:102610002046BDE8F88300242046BDE8F8834B46F9
:102620002A4631460320FEF70DFB0446D8E7CB6867
:1026300043F08003CB60E6E74FF6DF730B80CB6897
:1026400043F02003CB60DCE74B462A4631460020AE
:10265000FEF7F8FA0446C3E74B462A463146012006
:10266000FEF7F0FA0446BBE74B462A463146022005
:10267000FEF7E8FA0446B3E74B462A463146042003
:10268000FEF7E0FA0446ABE70010014000440040CA
:1026900000480040004C0040005000400014014041
:1026A0008160F7E64171F5E68171F3E62DE9F043CB
:1026B000784F07EBC00985B005464FEAC00899F886
:1026C000540006F0B7FE044699F8550006F0B2FE35
:1026D000064699F856006EF0ABFE6B1CDBB2002C80
:1026E00000F0AA8040F60C122372E280002E00F067
:1026F000B580337240F60C232046F38004223A2141
:1027000007F092F8042230463A2107F08DF807EBE3
:102710000803614A1C6D944200F096805F4B9C4216
:1027200000F0A2805E4B9C4200F0A980474497F8DD
:102730005730022B32D0032B7CD05A495A4F012BF1
:1027400008BF0F46A6886846FFF758FE26F03F06EA
:10275000029B564AB3FBF7F13604A2FB0323360C67
:1027600046EA9346A680228822F001021204120C47
:1027700022808AB2C1F30B019B0C09B942F001021D
:102780004FF4967101FB03F34949A1FB03139B0925
:1027900001339BB242F4004223841FE0A6886846BE
:1027A000FFF72CFE26F03F06029A404B3604A3FBAF
:1027B0000213360C46EA9346A680218821F00101D7
:1027C0000904090C21803B499209A1FB02129209DC
:1027D0009B0C0133042A238438BF0422A28323885C
:1027E000354A9BB243F001032380238823F481639D
:1027F00023F002031B041B0C4FF4804143F480635D
:1028000023802181238823F080031B041B0C238059
:1028100023889BB202EB451243F001032380012180
:10282000002382F8D85682F8D91682F8DA3605B035
:10283000BDE8F083214F85E7002E3FF468AF337287
:1028400040F60C23F3805DE71D4B1A6A42F4001238
:102850001A621A6A22F400121A6267E704222046FA
:102860003A2106F0E1FF52E703F5F0331A6A42F429
:1028700080021A621A6A22F480021A6256E703F58D
:10288000EE331A6A42F400021A621A6A22F4000253
:102890001A624BE7F8100020005400400058004036
:1028A000005C0040009F2400804F120083DE1B4329
:1028B000D34D6210632D3E0560330020C027090010
:1028C000003802402DE9F047924E90F90010804602
:1028D000807806EBC1050138CC0090B0296D142832
:1028E0002DD8DFE810F04D012101150055005F00E3
:1028F0009E00A600C401B7017A0084003D020502D3
:10290000D801C000D0002F003700A4019601550166
:10291000888A0C8B81B2804841EA0441884300F0E8
:102920002181D8E90201101A42F2107263EB010111
:10293000904271F1000102D3152388F8023010B0E3
:10294000BDE8F08798F813000882C8E90223122036
:1029500088F80200888A0C8B80B240EA04406F4CF1
:10296000844300F0B28000200E900F9001200F9160
:102970000E900E99002900F018820F9914310F91D2
:102980000F9909684905CCD5142388F80230D6E799
:1029900098F8110000F0FE000882C8E90223052023
:1029A00088F80200888A0C8B80B240EA04405C4CB4
:1029B000844300F0A180002000900190012001914B
:1029C00000900099002900F0FC81019914310191D7
:1029D000019909684F05D7D4A3E798F8110040F092
:1029E00001000882C8E902230B2088F80200888AC7
:1029F0000C8B80B240EA04404A4C84436DD00020E6
:102A0000049005900120059104900499002900F09C
:102A1000D281059914310591059909684D05B3D402
:102A20007FE798F813000882C8E90223072088F896
:102A30000200888A0C8B80B240EA0440374C844301
:102A40005ED0002002900390012003910290029931
:102A5000002900F0C2810399143103910399096898
:102A60004E0591D45DE7088820F480600004000CD6
:102A7000088098F8110000F0FE000882C8E90223DF
:102A8000102088F80200888A0C8B80B240EA04404B
:102A9000234C844312D000200C900D9001200D9106
:102AA0000C900C99002900F092810D9914310D9130
:102AB0000D99096848053FF567AF32E798F813307C
:102AC000FF2B06D198F810301BB1132388F8023081
:102AD00035E7112388F8023031E7D8F814000128CF
:102AE00000F09081022800F04482098B0E21C8E991
:102AF000022388F8021022E7062388F802301EE736
:102B0000D8F81400002800F06E81082388F80230FD
:102B100015E700BFF8100020010003008400070043
:102B20008200070002000300088820F4006000040F
:102B3000000C0880088880B240F480600880088813
:102B400080B240F480700880032088F80200888AF0
:102B50000C8B81B2A94841EA04418843C8E90223A9
:102B60007FF4EDAE98F81230002B40F0CE8198F84B
:102B70001330FF2B00F03F82042388F80230DEE69A
:102B8000098889053FF5CDAE002388F80230D6E6E6
:102B9000344494F8540006F04DFC064694F8550071
:102BA00006F048FC964AB2F8383701339BB28246A9
:102BB000A2F8383716B13368B2881A83BAF1000F19
:102BC00004D0DAF80030BAF804201A831121304614
:102BD00006F00CFC1121504606F008FC4FF00909E4
:102BE00065272EB13368B28819690A4240F0238103
:102BF000013F00F01D8109F0E7FD04460D4609F094
:102C0000E3FD001B61EB0501052871F10001F6D31E
:102C1000E7E7088880B240F4007008804FF6FF3084
:102C200088820121C8E9022388F8021087E6D8F8D3
:102C30001400002800F06D81D8F8184014F8016BDA
:102C40000E8201381225C8E90504C8E9022388F874
:102C5000025074E6888A0C8B81B2684841EA0441CC
:102C600088437FF45EAE0A2388F8023067E608885E
:102C700080B240F480700880092088F80200888AB9
:102C80000C8B81B25D4841EA04418843C8E90223C4
:102C90007FF455AEE7E7002401250A940B940B91CD
:102CA0000A950A98002800F047810B9814300B9081
:102CB0000B98006846077FF534AED8F81400032857
:102CC00000F06D81022800F24381088820F48060C2
:102CD0000004000C0880088880B240F4007008806E
:102CE000098A88F81C40C8E9022388F8025026E6C1
:102CF0000020012408900990099108940898002860
:102D000000F0148109981430099009980068470769
:102D10007FF507AEEFF31185102080F31288088845
:102D200080B240F400700880D8F818000E8A471C62
:102D3000C8F81870EDB2067085F311880D8AD8F8BE
:102D400018106FF001004E1CC8F818600D70C8E92B
:102D50000223C8F8140088F81C4088F80240EEE509
:102D6000002006900790012007910690069C002CF9
:102D700000F0E880079C14340794079C24686406DC
:102D80007FF5CFAD0C8AD8F818104D1CC8F8185034
:102D90000C70D8F8141088F81C000139C8E9022317
:102DA000C8F8141088F80200C9E50F9918310F917E
:102DB0000F990968B5E505991831059105990968D4
:102DC000AFE501991831019101990968A9E50D99BB
:102DD00018310D910D990968A3E5039918310391F4
:102DE000039909689DE5088880B240F40070088066
:102DF0000121C8E9022388F80210A0E501000300C0
:102E000060330020088820F480600004000C0880F3
:102E1000EFF31184102080F31288088B088880B2A9
:102E200040F40070E4B2088084F311880C215EE65F
:102E300016B13368B2885A8309F0C6FC04460D46C1
:102E400009F0C2FC001B61EB0501052871F10001CE
:102E5000F6D316B13368B2881A8309F0B5FC04467C
:102E60000D4609F0B1FC001B61EB0501052871F16D
:102E70000001F6D3B9F101097FF4B2AE16B133689F
:102E8000B2885A8309F0A0FC04460D4609F09CFC68
:102E9000001B61EB0501052871F10001F6D3BAF1C1
:102EA000000F04D0DAF80030BAF804205A8309F091
:102EB0008BFC04460D4609F087FC001B61EB050105
:102EC000052871F10001F6D316B13368B2881A8370
:102ED00009F07AFC04460D4609F076FC001B61EB14
:102EE0000501052871F10001F6D3BAF1000F04D0F5
:102EF000DAF80030BAF804201A8398F90000441C6C
:102F00003FF442AEFFF7D2FB3EE60F2388F80230D3
:102F100015E5088880B240F4007008800121C8E9F6
:102F2000022388F81C1088F8021008E50999183166
:102F3000099109990968F4E40B9918310B910B99DF
:102F40000968EEE407991831079107990968E8E4E0
:102F5000D8F81800098A441CC8F818400170D8F83D
:102F60001410C8F808200139C8F81410C8F80C303B
:102F7000E5E4088880B240F400600880EFF3118433
:102F8000102080F31288088B088820F480600004E9
:102F9000000CE4B2088084F311880D21A7E50888AD
:102FA00020F480600004000C0880EFF311841020EE
:102FB00080F31288D8F818000D8A461CC8F81860EB
:102FC0000570088880B240F40070E4B2088084F391
:102FD0001188D8F81800098A441CC8F818400170F4
:102FE000D8F814100C200239C8E90223C8F81410CC
:102FF00088F80200A3E498F81030002B3FF4BCAD31
:1030000031E600BF38B5184D9DF814E005EB4014CB
:103010004FEA401C94F8D90600B938BD490084F83D
:10302000EB26C4F8EC3684F8E9160023049984F8FA
:10303000E8E6022205F5DB6584F8EA36C4F8F01606
:1030400084F8F43684F8DA26654409F0BDFB0246BC
:103050000B462846FFF736FC94F8DA36002BF4D1FD
:1030600094F8F40638BD00BF60330020F0B5044684
:1030700083B00D461746061D20680379012B1AD030
:10308000022B02D0002003B0F0BD8368DB0732467C
:103090004FF0FF015CBF3246FF2105F085FA0028A2
:1030A000F0D015B12379DB07E6D4002FEBD02379DC
:1030B0003B7003B0F0BD8268417C90F9100002F0D3
:1030C0000102CDE90062FF22FFF79CFFE7E700BFA6
:1030D00030B50446051D20680379012B83B017D055
:1030E000022B02D0002003B030BD8368DB072A46E4
:1030F0004FF0FF015CBF2A46FF2105F055FA00287A
:10310000F0D02379DB07EED520680379012BE7D1D6
:103110008268417C90F9100002F00102CDE9005272
:10312000FF22FFF76FFFEAE730B50246044652F888
:10313000040B0379012B83B00ED0022B01D00020A9
:1031400008E0FF2105F030FA0028F8D02079C043CC
:1031500000F0010003B030BD8568417C90F910009B
:10316000009205F001050195FF22FFF74BFFEBE709
:1031700030B5B42283B00446FF21006804F0CCF9D6
:1031800010B9002003B030BD20680379012B04F191
:10319000040514D0022BF4D18368DB072A464FF0D4
:1031A000FF015CBF2A46FF2105F0FEF90028E8D0A8
:1031B0002379DB07E6D520680379012BEAD1826801
:1031C000417C90F9100002F00102CDE90052FF228B
:1031D000FFF718FFEAE700BF30B50A4683B00446A0
:1031E000A521006804F098F910B9002003B030BDA3
:1031F00020680379012B04F1040514D0022BF4D1CB
:103200008368DB072A464FF0FF015CBF2A46FF2197
:1032100005F0CAF90028E8D02379DB07E6D5206855
:103220000379012BEAD18268417C90F9100002F009
:103230000102CDE90052FF22FFF7E4FEEAE700BFFA
:1032400070B582B0CDE900230446FFF791FF10B9B5
:10325000002002B070BD20685522A52104F05CF961
:103260000028F5D0251D20682A46FF2105F0EEF93B
:103270000028EDD02379DB07F5D40DF1FF350DF1F2
:10328000070615F8011F2046FFF7A6FF0028DFD02C
:10329000B542F6D1DDE700BF002A35D0F0B50446CF
:1032A00083B00E468F18051D16F8012B2068A52146
:1032B00004F032F990B9002003B0F0BD8268417C7F
:1032C00090F9100002F00102CDE90052FF22FFF751
:1032D00099FE0028EFD02379DB0710D52068037909
:1032E000012BEBD0022BE6D18368DB072A464FF097
:1032F000FF015CBF2A46FF2105F056F9E9E7B74216
:10330000D2D1012003B0F0BD0120704770B59622E4
:1033100082B004460E460068FF2104F0FDF810B9A3
:10332000002002B070BD251D20680379012B1FD03D
:10333000022BF5D18368DB072A464FF0FF015CBF03
:103340002A46FF2105F030F90028E9D02379DB0770
:10335000EAD4E1222068114604F0DEF80028DFD02C
:1033600020683246FF2102B0BDE8704005F06EB91A
:103370008268417C90F9100002F00102CDE9005210
:10338000FF22FFF73FFEDFE7002A43D0F0B50446F7
:1033900083B00E468F18051D20689622FF2104F089
:1033A000BBF890B9002003B0F0BD8268417C90F971
:1033B000100002F00102CDE90052FF22FFF722FEC9
:1033C0000028EFD02379DB0710D520680379012B83
:1033D000EBD0022BE6D18368DB072A464FF0FF01D2
:1033E0005CBF2A46FF2105F0DFF8E9E7E12220680B
:1033F000114604F091F80028D4D020683246FF210D
:1034000005F024F90028CDD00136B742C4D10120FF
:1034100003B0F0BD0120704770B505460B46044669
:10342000164655F8040B82B087211A4604F074F84A
:1034300020680379012B1AD0022B02D0002002B0A1
:1034400070BD8368DB072A464FF0FF015CBF2A4648
:10345000FF2105F0A9F80028F0D02379DA07E7D496
:10346000002EECD0C3F34013337002B070BD8268FD
:10347000417C90F9100002F00102CDE90052FF22D8
:10348000FFF7C0FDE7E700BF70B5782182B00446C2
:1034900016460068002204F03FF810B9002002B080
:1034A00070BD251D20680379012B14D0022BF5D1A6
:1034B0008368DB072A464FF0FF015CBF2A46FF21E5
:1034C00005F072F80028E9D02379DA07EAD45B091D
:1034D000337002B070BD8268417C90F9100002F038
:1034E0000102CDE90052FF22FFF78CFDEAE700BFA1
:1034F00030B5CC2283B00446A521006804F00CF856
:1035000010B9002003B030BD20680379012B04F10D
:10351000040514D0022BF4D18368DB072A464FF050
:10352000FF015CBF2A46FF2105F03EF80028E8D0E5
:103530002379DB07E6D520680379012BEAD182687D
:10354000417C90F9100002F00102CDE90052FF2207
:10355000FFF758FDEAE700BF30B5B42283B0044658
:10356000FF21006803F0D8FF10B9002003B030BD80
:10357000251D20680379012B22D0022BF5D1836809
:10358000DB072A464FF0FF015CBF2A46FF2105F00A
:103590000BF80028E9D02379DA07EAD4CC212046B9
:1035A000FFF71AFE0028E0D002E02379DB07DDD523
:1035B00020682A46FF2105F049F80028F5D1D4E714
:1035C0008268417C90F9100002F00102CDE90052BE
:1035D000FF22FFF717FDDCE72DE9F04F8BB0CDE9B7
:1035E00007230446002004908A460390251D049B6F
:1035F000079A2046DE0002EBC30BFFF7B9FD20B9A6
:1036000035E0237913F0010207D020682A46FF2114
:1036100005F01CF80028F4D129E005929A070990DA
:1036200040F1D880F0212046FFF7D6FDF8B1079B86
:10363000DDF81480083E3344012606933746BAF17C
:10364000000F54D0082F52D807F1FF394AFA09F970
:1036500009F0010920684FEAC912782103F05CFFE4
:1036600028B120680379012B50D0022B06D000200E
:10367000089B049A1A700BB0BDE8F08F8368DB07D3
:103680002A464FF0FF015CBF2A46FF2104F08CFF61
:103690000028ECD0237913F00102E2D1C3F3801C9F
:1036A000D9099B0646D5BCF1000F60D1BAF1000FD5
:1036B0005AD0082F58D8894540F08880B9F1000FBA
:1036C00048D01BF8083033430BF808307600013738
:1036D00016F0FF06FFB2B2D108F101085FFA88F8D0
:1036E000B8F1080F43D00126BAF1000FAAD1049B0C
:1036F000C3B1039BBB4215D9069B13F808301E4289
:1037000014BF4FF001094FF00009A3E78268417C24
:1037100090F9100002F00102CDE90052FF22FFF7FC
:1037200071FCB5E7039BA3EB0709B9FA89F94FEAE6
:1037300059198FE7BAF1000F13D0082F11D8894516
:1037400096D1B9F1000FBCD1059BBCF1000F08BFA9
:103750003B4605931BF8083023EA06030BF80830B4
:10376000B4E70029ADD1EFE70029AAD1F2E7402F55
:1037700006D8089B049A1B7893423FF638AF77E748
:103780009BF807700BF1FF360BF1060B16F801CF13
:10379000082182EA0C0343F30003013923F0730389
:1037A00083EA520211F0FF01D2B24FEA5C0CF0D171
:1037B000B345EBD19742DCD1049B0133DBB20493D8
:1037C000059B002B3FF454AF0393D2E7DDF8248030
:1037D00040464DE7804640464AE700BF10B50446E4
:1037E00000680379012B84B02DD0022B01D000207A
:1037F00027E0836813F0010F02AA4FF0060314BFFD
:103800001F219F2104F0CAF80028F0D0BDF808104D
:10381000BDF80A20BDF80C30C9BA07EE901AD2BA2A
:10382000F8EEE76A07EE902ADBBAB8EEE77A07EE21
:10383000903AF8EEE77AC4ED046A84ED057AC4EDB7
:10384000067A04B010BD8368417C90F9100003F043
:103850000103019302AB00931F220623FFF7D2FB63
:10386000D2E700BF38B5184D9DF814E005EB4014C1
:103870004FEA401C94F8D90600B938BD84F8EB260D
:10388000C4F8EC3601220023490005F5DB6584F815
:10389000EA2684F8F436049A84F8E8E6022384F8E9
:1038A000E916C4F8F02684F8DA36654408F08CFF8F
:1038B00002460B462846FFF705F894F8DA36002B47
:1038C000F4D194F8F40638BD603300200068037921
:1038D000012B0BD0022B01D0002070478368DB073F
:1038E0004FF0F00219D5FF2103F0C0BD00B582688A
:1038F00090F910C0417C85B002F0010201920DF1F7
:103900000F0200926046FF224FF0F00C8DF80FC0BE
:10391000FFF7A8FF05B05DF804FB7F2103F0A6BD0B
:1039200070B505682B79012B84B004460E4617D07C
:10393000022B02D0002004B070BDAB68E122DB078F
:103940004CBF11466121284603F090FD0028F1D0BC
:1039500020683246FF2104B0BDE8704004F076BE16
:10396000AA68697C95F9100002F001020DF10F05BB
:1039700001920095E1228DF80F20FFF773FFE5E734
:1039800070B505682B79012B84B004460E4618D01B
:10399000022B02D0002004B070BDAB68DB074FF0F3
:1039A000C3024CBFE1216121284603F05FFD0028DE
:1039B000F0D020683246FF2104B0BDE8704004F02A
:1039C00045BEAA6895F91000697C02F001020192D7
:1039D0000DF10F020092C3228DF80F20E122FFF7B4
:1039E00041FFE4E700680379CA4341EA0211012B71
:1039F000CAB209D0022B01D0002070478368DB07D0
:103A000017D5D22103F032BD00B585B090F910C0B2
:103A10008DF80F208268417C02F001020DF10F0049
:103A2000CDE90002D2226046FFF71CFF05B05DF829
:103A300004FB522103F01ABD70B505682B79012BE8
:103A400084B004460E461CD0022B02D0002004B0E5
:103A500070BDAB68DB074FF0F0024CBFE121612184
:103A6000284603F003FD0028F0D02246FF2152F83B
:103A7000040B04F0EBFD0028E8D02379337004B088
:103A800070BDAA6895F91000697C02F001020192EC
:103A90000DF10F020092F0228DF80F20E122FFF7C6
:103AA000E1FEE0E700680379012B0BD0022B01D087
:103AB000002070478368DB074FF0B40219D5FF215F
:103AC00003F0D4BC00B5826890F910C0417C85B089
:103AD00002F0010201920DF10F0200926046FF22F6
:103AE0004FF0B40C8DF80FC0FFF7BCFE05B05DF8C9
:103AF00004FB7F2103F0BABC00680379012B0AD0D4
:103B0000022B01D0002070478368DB070A4617D5D7
:103B1000A52103F0ABBC00B5826890F910C085B058
:103B200002F001028DF80F10417C0DF10F00CDE97C
:103B30000002A5226046FFF795FE05B05DF804FB84
:103B4000252103F093BC00BF00680379012B0BD043
:103B5000022B01D0002070478368DB074FF09602EC
:103B600019D5FF2103F082BC00B5826890F910C01E
:103B7000417C85B002F0010201920DF10F0200922A
:103B80006046FF224FF0960C8DF80FC0FFF76AFEDB
:103B900005B05DF804FB7F2103F068BC0068037981
:103BA000012B0AD0022B01D0002070478368DB076D
:103BB0000A4617D5872103F059BC00B5826890F9F1
:103BC00010C085B002F001028DF80F10417C0DF19C
:103BD0000F00CDE9000287226046FFF743FE05B0E3
:103BE0005DF804FB072103F041BC00BF00680379C6
:103BF000C901012BCAB206D0022B01D000207047A8
:103C0000782103F033BC00B585B090F910C08DF871
:103C10000F208268417C02F001020DF10F00CDE916
:103C2000000278226046FFF71DFE05B05DF804FB38
:103C300000680379012B0BD0022B01D000207047C4
:103C40008368DB074FF0550219D5A52103F00EBCA0
:103C500000B5826890F910C0417C85B002F0010285
:103C600001920DF10F0200926046A5224FF0550C13
:103C70008DF80FC0FFF7F6FD05B05DF804FB2521B8
:103C800003F0F4BBF0B589B00023904A029303938C
:103C9000136843F48033136003E0029BB3F5A04F35
:103CA00009D0136803F400330393029B013302939A
:103CB000039B002BF1D0854B1B6813F4003318BF16
:103CC00001230393039B012B01D000BFFDE77F4B32
:103CD0007F491A6C7F4842F080521A640A6842F4A5
:103CE00040420A609A689A609A6842F400429A6078
:103CF0009A6842F4A0529A6058601A6842F0807242
:103D00001A601A689001FCD5734A40F2057111607F
:103D1000996821F003019960996841F00201A2F5C8
:103D200080629960936803F00C03082BFAD19368C2
:103D300003F00C03042B00F0C680082B00F0AB80CE
:103D4000664A624B66499868664D674E674FC0F396
:103D500003100144002491F86C10CA406449E960E2
:103D60006449586FA960596BC6F8442F21F080014F
:103D70005963596F604A614841F080715967196B06
:103D80000A431A635A6B5A639A6B9A631A6C5C49BA
:103D90000A431A64596C5B4A0A435A6448F2FF7139
:103DA00023462246CDE9004475F0A0FE564823463E
:103DB00022464FF6FF71CDE9004475F097FE534857
:103DC000234622464FF6FF71CDE9004475F08EFE82
:103DD0004F48234622464FF6FF71CDE9004475F067
:103DE00085FE4C48234622464FF6FF71CDE900443C
:103DF00075F07CFE4848234622464FF6FF71CDE918
:103E0000004475F073FE4548234622464FF6FF7185
:103E1000CDE9004475F06AFE4148234622464FF63C
:103E2000FF71CDE9004475F061FE234622464FF64E
:103E3000FF713C48CDE9004475F058FE04A8FEF738
:103E4000DDFAD5F8FC200499D6F8443F364842F014
:103E50008072C5F8FC20354AC2F8B00F5460106873
:103E600040F0010010604FF47A72B3FBF2F3013BB3
:103E7000B3F1807F2E4AB1FBF2F2C7F83C2708D29B
:103E80004FF0E022F0215361072385F8231094615D
:103E9000136109B0F0BD5168536852684902C2F31A
:103EA00088124CBF23490D4903F03F03B1FBF3F3E4
:103EB00003FB02F2054B5B68C3F3014301335B0074
:103EC000B2FBF3F23DE71B4A3BE700BF003802407C
:103ED0000070004008544007003C02400024F400F9
:103EE000C4D9070800ED00E0000000206033002086
:103EF0000003FA0500000008FF916700000002407F
:103F0000FFC9FE10335707000004024000080240BA
:103F1000000C024000100240001402400018024051
:103F2000001C02400020024055CEACC5001000E04D
:103F300040420F0000127A0082B0064B002201922C
:103F40000193019B03EB80030193019B196002B075
:103F5000704700BF502800402DE9F04F1C2085B06D
:103F600005F068FA1121044605F040FA002C00F033
:103F7000DA812368A2885A83C82008F053FC23689A
:103F8000A2881A831B2005F055FA20B140F20F12C7
:103F90000023C280037240F20F220023E2802372CA
:103FA000C14B5021082283F84313C3F88820BFF384
:103FB0004F8FBFF36F8FBD4EBD4D336BDFF838A30E
:103FC000DFF83893DFF83883BA4F002443F0010359
:103FD00033632846032302224FF4C051CDE9004445
:103FE00075F084FD6A6AB449B448DFF818E3DFF875
:103FF00018C322F470426A626A6A42F420426A621A
:104000006A6A22F470226A626A6A42F420226A6250
:10401000726CAB4D42F480427264726B012342F0C9
:10402000800272634B61A749A74AC5F8342545E968
:104030002C01022105F8A81C4FF0A04145F8A41C52
:1040400001F5006145F8A01C01F5807145F8981C48
:1040500001F5007145F85C1CA1F5F07145F8941C60
:1040600001F5007145F8581CA1F5F07145F8901C58
:1040700001F5007145F8541CA1F5F07145F88C1C50
:1040800002F12C0B01F50071483245F8501CC5F8BF
:104090003C25A1F5EC618D4A45F89C1C4031E96155
:1040A00005F8A53CC5F838B545E908A945F8102C30
:1040B000203245F80C2C203245F8082C203245F8E7
:1040C000042C02F52262824E2A6202F580526A6254
:1040D00045E9068E02F580527E48E86301F51C61D1
:1040E000C5E90A2CC5E90D764FF05022A5F1B006BE
:1040F000E9652A6385F8623085F8644032462146D6
:10410000402082F81C41A2F822410134042CC2E96B
:10411000490182F81D3182F81F11C2F8301102F1F5
:104120002802EED1002233461446402183F874233E
:10413000A3F87A230132042AC3E9DF1483F8754314
:1041400083F87743C3F8884303F12803EED14FF097
:10415000A0474FF00008BB6823F00103BB60FB6879
:1041600043F04003FB606DF09DFA15F8A73CB3EBFC
:10417000080318BF01231B0143F0210363F3174811
:10418000C7F83880FB68C3F3076222F0600242F090
:10419000400262F31F63504AFB60C7F8004E136889
:1041A00064F3CC231360136843F0030313604B4A9A
:1041B000802179624FF4A073BA6202F14012C7F80D
:1041C0000421C7F80831C7F80C310394039B43F06E
:1041D00020030393039A424B102161F38A12039246
:1041E000039A3A613A690392013B02D0039A91061D
:1041F000F8D400230293029B43F0100302934FF084
:10420000A041029A364B0A610A690292013B02D030
:10421000029AD206F8D4304B324A00204FF0FF31D8
:10422000186106F124055861FF249961D86152F89C
:10423000043F19680029B4BF4FF090410021954216
:10424000196018619C60F2D1274A60360024FF2073
:1042500052F8043F19680029B4BF4FF09041002183
:10426000964219601C619860F2D11B4802694FF0B8
:10427000A04342F4807202616FF080411B4A9C614E
:104280004FF0FF3559615D6059619A619869184A2C
:10429000184902439A619A68D1F8941042F00102D9
:1042A0009A60884732E000BF00E100E00038024039
:1042B0000000024000600050003C01400804010082
:1042C0006033002040004001601100208005005054
:1042D0000070005000800050000800508000400036
:1042E000410D0300C432002000330020000800808C
:1042F00018383C00F8100020000500502005005040
:104300004005005060050050004000500D4A0E4B23
:104310000E495025082082F843535C63906019626F
:1043200005B0BDE8F08FC82008F07CFA1B2005F02E
:1043300081F800283FF434AE40F20F13C3800472BA
:104340002EE600BF00E100E068220020C50300085F
:10435000704700BF704700BF704700BF10B5104CDA
:1043600014F8A63C23B90F4B4FF480225A6110BDBC
:104370004FF0E022D2F8103D23F00603C2F8103DC2
:10438000FDF730FC54F8A03C9B68DB07EBD5E26DF1
:10439000136823F0030161F307031360E3E700BF31
:1043A00060330020003C01402DE9F04FA34C54F84D
:1043B000A43C5A69D5078BB002D50BB0BDE8F08F8D
:1043C0005A699B6912EA0301F7D0C1F30743080356
:1043D000019300F1E180019B5D073FD48807CEB2D5
:1043E00003D554F8A43C02225A610029C0F2468247
:1043F0000A05C1F3072500F19981370708D5904BCD
:104400009048D3F8D830984754F8A43C08225A6111
:10441000F60600F10C82E80600F1BD81A80600F165
:104420001781019BDA0609D5854B8648D3F8E83019
:10443000984754F8A43C4FF480125A61019B9B06A4
:10444000BBD57F4B7F48D3F8EC30984754F8A43C59
:104450004FF400125A610BB0BDE8F08F54F8A03C45
:104460009E69DB691E40B6B2002EB7D0754D4FF085
:10447000000B05F118080F46F00740F1828054F850
:10448000A01CD8F8002008694B6B23FA0BF3DB0162
:10449000DBB203439068034013F00109D8B200F087
:1044A0000A824B6B012000FA0BF023EA00034B63F6
:1044B00001239360624B6348D3F8D0305FFA8BF1ED
:1044C000984714F8AD3C012B00F07A8219F0800F68
:1044D00057D0D5E94CC1D5F82431D8F800E0ACEB81
:1044E00001029342DEF8180028BF134680B203335E
:1044F000B0EB930F45D954F8A03C14F8AD9CCDE92E
:10450000026BBA4667469C46B94237D2D5F8243189
:10451000781A984228BF184600F1030BD5F82831C5
:104520004FEA9B0BB9F1000F10D182B20332921007
:10453000D8F8B8600AD04946013153F8047B376097
:104540008A42F9D1D5E94C71D5F8283101440344A8
:104550008F42C5F82831C5F83411DEF818300AD179
:1045600095F81C01012202FA00F0DCF8342022EA5E
:104570000002CCF834209BB29B45C5D3DDE9026B29
:10458000574676080BF1010B05F1280508F10408E0
:104590007FF472AF394621E754F8A03C9D69DB698E
:1045A0001D402D0C3FF417AFA4F1B008DFF890B018
:1045B0000291A4F15C0600274FF00109C24608E011
:1045C0006D0807F1010706F1040608F1280800F05C
:1045D0008C81EA07F4D5306854F8A01C83684969D7
:1045E0000B40D9B2DB0740F16B8114F8AD3CC0F849
:1045F0000890012B07D10169D8F87C33C1F312016F
:104600005B1AC8F88C33DBF8CC30F9B250469847C7
:1046100014F8AD3C012BD3D1002FD1D194F86130E7
:10462000052BCDD154F85C3C074919610749596104
:1046300019684FF080211960C2E700BF6033002085
:10464000F8100020B0320020180008607C380020EC
:1046500054F8A05C54F8982CAB68C3F34103022BC8
:10466000136814BF0021032161F30A0313606B6810
:1046700043F4807306A86B60FDF7C0FE54F8A42CC9
:10468000079ED36823F47053D360A86810F0060F18
:10469000C0F3410100F037819D499E483144814279
:1046A00040F2AA819C48A6F57401A1F510518142FF
:1046B00040F2A68199499A4831448142C0F0A481D0
:1046C0009848A6F18C71A1F54341814240F2A08146
:1046D0009549964831448142C0F09E81944995485D
:1046E00031448142C0F09C819348A6F1B771A1F595
:1046F00058518142C0F09C81904991483144814297
:10470000C0F092818F4890493044884234BF0620DF
:1047100005204025012160F38D23D3604FF4005321
:1047200004F8AE1C24F8AC5C53617AE600238DF8E3
:10473000133094F862308DF81330844B8448D3F8EA
:10474000E030984754F8A03C54F8A42C986814F82A
:10475000A63C4FF400615161002B3FF44EAEC307FD
:104760007FF54BAE94F86530012B7FF446AE9DF893
:104770001330032B7FF441AEE36D76491A6842F0A3
:1047800001021A601A6842F003021A600B6943F0D2
:1047900006030B6131E654E929167368002723F0FC
:1047A000010373600597059B43F020030593059B68
:1047B00067F38A130593059B0B61674BBC460A6937
:1047C0000592013B02D0059A9206F8D414F8AF2C5A
:1047D00052B1624B03EB820EFF2253F8040F82604A
:1047E000D86B73458260F8D10B2363F3070763F33B
:1047F000070C4FF0FF33B3614FF00113F3617761A2
:10480000C6F810C03368564823F4FE63336014F8CA
:10481000AD2C54F85C3C012A18616DD04FF48053E4
:104820004B614A4B4A48D3F8DC309847F6E554F8D8
:10483000A43C9A6922F010029A611A6AC2F34340BA
:10484000022802F00F0100F08F80062811D101EB41
:10485000810104EBC101266AD1F8DC02C2F30A121D
:1048600010443268C4F81C253268C4F82025C1F809
:10487000DC029A6942F010029A61CCE514F8A63C79
:1048800033B1E26D136823F0030060F30703136094
:1048900054F8A02C2D4B2E48D3F8E45053680291C5
:1048A00023F001035360A84754F8A43C02994FF049
:1048B00000425A619CE5010707D50823936060E632
:1048C0008A0707D5022383607AE6C3060FD5102333
:1048D000936056E60B077FF573AEDBF8D430504695
:1048E00098473368082199606AE6029973E54106A2
:1048F0007AD54023936044E61A4A5A611A684FF009
:1049000080221A608AE74FF40075092003E700BF90
:10491000401E1BFF3F420F00DFC810002013FBFEAC
:1049200020D61300FF69180000D3CEFE40771B008D
:10493000C05BB3FEC091210040AC2700C01D6AFEE1
:1049400040E13300803C36FEE09C4100F81000203E
:10495000B032002000ED00E0410D0300C432002021
:10496000180008607C38002047F6F070104280D0B4
:10497000C2F30A1201EB810004EBC00002F1030C48
:104980005FEAAC0CD0F8D062D4F820E04FEA81089E
:1049900018BF002006D00130DEF8007046F8047B16
:1049A0008445F8D1414404EBC101D1F8D002104450
:1049B000C1F8D002D1F8DC021044C1F8DC0258E79B
:1049C000BBF1000F7FF482AD94F86130042B7FF4CB
:1049D0007DAD54F85C3C184A1A61184A5A611A684D
:1049E0004FF080221A6071E5830758BF81467FF53A
:1049F0006DAD02239360C4E5012140250E208AE6B7
:104A0000012140250D2086E6012140250C2082E66B
:104A1000012140250B207EE6012140250A207AE66F
:104A200001214025092076E601214025072072E674
:104A30000121402508206EE6180008607C3800201F
:104A400010B54FEA511E024400EB8E0C624529D985
:104A500001F01F034FF0FF3450F82E1004FA03F357
:104A60000B4093FAA3F3B3FA83F3DBB2202B16D1F6
:104A70000CF104018A4202D817E08A4212D98C460E
:104A80000431DCF8003093FAA3F3B3FA83F3DBB21A
:104A9000202BF2D0ACEB000C03EBCC0010BD03EBF1
:104AA0004E1010BD4FF0FF3010BD204610BD00BFAE
:104AB0000369416890ED067AF0B4C56A3B4E876899
:104AC00053EA010204BFD6F83C1841606A1C30EE7C
:104AD000077A0133012A80ED067A0361C26241D070
:104AE00090ED075AD0ED096AD6F83C4807EE902AB7
:104AF00070EE455AB8EEE76A611AC5EE867AB94299
:104B000077EE857A30EE670AC0ED087AE5EE806AC6
:104B1000C0ED077AC0ED0A6AC0ED096A01D8F0BCA1
:104B20007047012A2ADD07EE905AF8EEE77A86EE02
:104B3000A76AB5EEC06AF1EE10FA1FDBF1EEC67A95
:104B4000F4EE677AF1EE10FA18D6D0ED056AF4EEBD
:104B5000E76AF1EE10FA14D5037BF3B10323F0BC3E
:104B600003707047D6F83C2880ED080A521ABA4202
:104B70004FF0000180ED070A4162D0D9DFED0C7AD9
:104B8000E3E707EE903AF8EE677A0223C7EE276A6A
:104B9000F0BC0370C0ED066A7047D6F83C1841605F
:104BA000002203618261C362B9E700BF682200206E
:104BB00000000000DFED504A10B5844600F1480EB9
:104BC0000346B1EC017AD3ED067ADA6A77EE877A9A
:104BD0000132012AC3ED067ADA6255D093ED075A05
:104BE00093ED096A07EE902A77EE455AF8EEE77AD8
:104BF000C5EEA76A76EE857AF0EE466A37EE677AFA
:104C0000C3ED087AE5EE876AC3ED0A6AC3ED077A59
:104C1000C3ED096A18337345D3D1384C4168D4F8D1
:104C20003C280369521A816801338A4203612AD9F8
:104C300090ED056A00F1300EDCF82C20DCED0A6AFC
:104C4000012A02F1FF3126DD07EE901AF8EEE77A2D
:104C500086EEA77AB5EEC07AF1EE10FA1BDBF1EE24
:104C6000C77AF4EE677AF1EE10FA14D6E645B4EEA0
:104C7000E76A0CF1180C16D0F1EE10FADCD5037BC4
:104C80006BB30323037010BDF0EE477AF0EE646A55
:104C900083ED087ABAE7DFED187AE645B4EEE76A05
:104CA0000CF1180CE8D1F1EE10FAE8D407EE903AC6
:104CB000D0ED066A90ED0C7AD0ED125AF8EE677AD4
:104CC000022386EEA76A0370C7EE276A85EEA77AED
:104CD00080ED066AC0ED0C6A80ED127A10BD0022EC
:104CE000D4F83C18416003618261C362026343648B
:104CF0008264C36510BD00BF000000006822002070
:104D0000B0EEC06AF0EEE05AF4EEC65AF1EE10FAD8
:104D1000F0EE407A0EDCB5EE400AF1EE10FA4BD020
:104D2000F4EEC65AF1EE10FAF0EE466A50D5B0EE47
:104D3000655A03E0F0EE656AB0EE465A85EE267AD3
:104D40009FED252A9FED253A9FED254ADFED254A67
:104D5000DFED252ADFED253ADFED256AA7EE023AE1
:104D6000E7EE223AA7EE034AB7EE005AE7EE044A0E
:104D7000A7EE235AE7EE246AF4EEC65AB1EE667A3D
:104D800087EE050AF1EE10FA48BF9FED1A7AF5EEAC
:104D9000C00A48BF37EE400AF1EE10FA48BF9FED57
:104DA000167AF5EEC07A48BF37EE400AF1EE10FAF7
:104DB00048BFB1EE400A7047DFED107A9FED100A50
:104DC000F5EEC00AF1EE10FA58BFB0EE670A704770
:104DD000B0EE465AB2E700BF39094E3DE3B59EBE7C
:104DE00088FA16BE45FE7FBF99FB243F69A2163E96
:104DF000A7DFA8B4DB0FC93FDB0F4940A7DFA8340A
:104E0000DA0F494091ED007AD0ED047A90ED054A31
:104E1000D0ED064A90ED075AD0ED085A90ED096A98
:104E2000D0ED0A6AE7EE077AF7EE003AC0ED047AB1
:104E300091ED007AD1ED017AA7EE274A90ED0B7A39
:104E400080ED054A91ED024A91ED003AD0ED0C7AE1
:104E5000E3EE044AC0ED064AD1ED004A35EE245A8D
:104E600080ED075AD1ED014A91ED005AE4EE855AE2
:104E7000C0ED085AD1ED015AA5EEA56A80ED096A88
:104E8000D1ED015A91ED026AE5EE866AC0ED0A6A3B
:104E9000D1ED016A37EE267A80ED0B7AD1ED026A08
:104EA00091ED007AE6EE877AC0ED0C7A91ED026A18
:104EB000D1ED016AD0ED0D7A90ED0E7A90ED0F4AAA
:104EC000D0ED104A90ED115AD0ED135AE6EE267A45
:104ED00075EEA35AC0ED0D7AD1ED026AD0ED127ACB
:104EE00090ED006AA6EEA67AD0ED016A80ED0E7A0A
:104EF00091ED027A34EE074A90ED027A80ED0F4A86
:104F000091ED004A74EE844AC0ED104AD1ED014A99
:104F100035EE245A80ED115A91ED025AC0ED135A24
:104F200077EE857AC0ED127AD1ED017AD1ED005A93
:104F300091ED025A67EEA77AE5EEA57AE5EE057ADD
:104F4000A5EEA76A80ED006A91ED016AE6EE276A98
:104F5000C0ED016AD1ED026AA6EEA77A80ED027A71
:104F600090ED037A77EE277AC0ED037A704700BFA1
:104F70002DE9F04F4FF0000989B0864600F1100589
:104F80000646034600F13008074648462C46CDF851
:104F90000CE08B469C46B24600283CD10CF1040C38
:104FA000A445FBD1032800F1010151D09C46AA463B
:104FB000029398B1DCED047A0192AAEB0903B6469C
:104FC0007246F3EC016A92ED007AE6EEC77A534539
:104FD0000EF1100ECCED047AF2D1019ADCED046AE8
:104FE00015ED047AC6EE877A0CF1100CC4450AF16F
:104FF000100ACCED007ADCD1029B0436143308464B
:1050000008F1040814351034103709F104099C46DE
:10501000B2460028C2D0DCED007A0192D64639466D
:105020007246F1EC016A92ED007AE6EEC77A994297
:105030000EF1100ECCED007AF2D10CF1040CA44567
:10504000019A0AF1040AE6D1032800F10101ADD169
:10505000DDF80CE00023594604930593069307936B
:105060007646774604AD0020F2EC017AE5EC017A51
:10507000B0B104AC3B46B4EC017AF3EC016AE6EE65
:10508000C77AB34245ED017AF5D1013004280BD03F
:10509000F2EC017A10371436E5EC017A0028E8D1F9
:1050A000103714360120DFE708AD75ED017A1031B5
:1050B0000EF1400E04287446A1F1040241ED017A7C
:1050C0001ED07346F3EC016AB1EC017AE6EEC77AC2
:1050D000A342C2ED007AF5D15EED016A87EEA67AB1
:1050E000013882ED007A17D0AEF1140E103C114653
:1050F00075ED017A0428A1F1040241ED017AE0D1B5
:105100005EED016A87EEA67A103CAEF1140E032024
:1051100001ED017A1146EBE709B0BDE8F08F00BF61
:10512000DFED297AB4EEE70AF1EE10FA28DD9FED03
:10513000277A30EE470AB4EEE70AF1EE10FAF8DC0F
:10514000DFED237AB4EEE70AF1EE10FA2FDD30EE50
:10515000670A37EEC00A60EE007A9FED1E7A9FED77
:105160001E6ADFED1E6AA7EE876A9FED1D7AE7EEE5
:10517000866A60EE275AA7EEA67AA5EE870A7047E0
:10518000DFED187AB4EEE70AF1EE10FAD8D59FED0C
:105190000F7A30EE070AB4EEE70AF1EE10FAF8D40F
:1051A000DFED0B7AB4EEE70AF1EE10FACFDC9FEDFB
:1051B0000E7AB4EEC70AF1EE10FA44BF30EE270AB9
:1051C00037EE400AC7E700BFDB0F4940DB0FC9409D
:1051D000DB0FC93F9A7C2E36FAAF4FB93587083CB2
:1051E000A4AA2ABEDB0F49C0DB0FC9BF10B5404CD3
:1051F000B4FBF2F4A14219D3DFED3E7AF7EE005A88
:10520000B0EE677AB0EE676AF0EE676A0023C0ED31
:10521000005AC0ED017A80ED027A80ED036AC0ED9C
:10522000046A836143610362C36110BD07EE902A83
:10523000B8EE677ADFED307A27EE277AB7EE006AAC
:10524000C6EE076A07EE901A9FED2C7AF8EE677AA1
:10525000B0EE405A67EE877AC7EEA64AFDEEE47AD2
:1052600017EE902A2032402A3FD8B0EE640AFFF7AA
:1052700057FFB0EE404ADFED227A34EEA70AFDEE8A
:10528000C07A17EE902A2032402A29D8FFF748FF2B
:10529000F8EE006A60EE266A012B1CD0B7EE006AB9
:1052A00036EE406AF6EE004A66EE244A35EE055ABE
:1052B000F7EE007A84EE057A77EE275A37EEC75A72
:1052C00084EEA57AC6EE257A86EEA56AC5EE256A35
:1052D000F0EE475A9AE7B0EE666AF7EE004AE5E765
:1052E000DFED086A9FED030AD6E79FED024AC2E7A9
:1052F00020A1070000000000BD378635DB0FC94044
:10530000DB0FC93F00000080DFED077A30EE270A8F
:10531000FDEEC07A17EE903A2033402B00D8FFE61E
:105320009FED020A704700BFDB0FC93F000000007D
:105330002DE9F84FDDF82CB09DF828408946002C67
:105340001BF8011B0CBF4FF020084FF030081C1E4B
:105350000546174608463ADB00295CD0002C55D09C
:105360004FF0000A5B4600E064B313F8016B013CA8
:10537000002EF9D1BAF1000F2FD1264644B14D4588
:105380004146284600D2B847013CF8D10B9B18781B
:105390000146A0B14FF0FF344FF0000A00E09B46F9
:1053A0004D45284600D2B8475B4613F8011B00293B
:1053B000F5D10B9BF61A5E44BAF1000F10D13046BE
:1053C000BDE8F88FBAF1000F1BD15646E0E7634203
:1053D00029B31C464FF0010AC4E70028E0D1064675
:1053E000002C04F1FF3AEADD54464D45414628467B
:1053F00000D2B847013CF8D2013656443046BDE8E9
:10540000F88F06460028DAD02646C9E72646A24687
:105410004FF0FF34C4E72646002CB0D1CFE76FEA47
:10542000040A0E46E0E700BF0FB430B583B006AB08
:105430000C4853F8042BD0F86019D0F85C0901939C
:105440006EF0A8F8084C0546D4F8380803685B6984
:1054500098470028F8D0284603B0BDE8304004B093
:10546000704700BF60330020682200200EB410B5E2
:1054700083B005AB044653F8042B0749009301A8F9
:1054800001946EF087F8019B00221A7003B0BDE80A
:10549000104003B0704700BF490900080CB4F0B5D4
:1054A0003E4CD4F86439ADF5277D002B70D094F8CC
:1054B0006C3999420BD9D4F87029012383401342E7
:1054C00005D10DF5277DBDE8F04002B07047344BA3
:1054D000344AD3F83C38A2FB030292094FF47A71A4
:1054E00001FB123306A83049FFF7C0FF06AB0344A7
:1054F0002E49AC9A01930646ADAB01A800936EF01D
:1055000049F8019B0A22591C01911A70019B002243
:10551000591C01911A70D4F86459BDB12B685B6AAB
:105520002BB1284698470028CBD0D4F864599DF871
:1055300018100029C5D00DF119042B6828461B68E6
:10554000984714F8011B0029F7D1BAE7D4F8687915
:10555000002FB6D0304426AB841CFD2206A9ADF83E
:10556000102018462246CDF81250ADF8165077F0AC
:10557000E9FD02220346044402A93846CDE902347B
:1055800036F04EFE0DF5277DBDE8F04002B07047C5
:10559000D4F86839002B8AD193E700BF603300202C
:1055A00068220020D34D62106C8208081907000899
:1055B000194A10B5D2F87449033004EB9003B3F5DF
:1055C000007F19D8C2F8743902F6781202EB84040D
:1055D000124A02EB810120F00300D1F88020C3F5CC
:1055E00000731044C1F880000D4A9B000421002084
:1055F000FFF754FF204610BD00210846094AFFF777
:105600004DFF094AD2F8AC30002443F00073C2F8D1
:10561000AC30204610BD00BF60330020584400204D
:10562000788208089C820808000000102DE9F041EB
:105630000268214D0746002455F834309A4209D0BB
:1056400001340E2CF8D11D4A00210520FFF726FF5A
:10565000002013E01A4B03EB8408D8F8A0667EB153
:10566000797901EB410306EBC30300221820C3E95B
:10567000032200FB01609F601A750430BDE8F081D1
:1056800007216C20FFF794FF0146C8F8A00668B117
:1056900031466C2278F01BF8D8F8A06605EBC405FB
:1056A000C6E90056F6617663F664D9E7054A052037
:1056B000FFF7F4FECCE700BF50DA0708AC82080819
:1056C00060330020D482080803685A1C02601878EE
:1056D000704700BF03681A46591C016012F8021B8C
:1056E0000260587841EA0020704700BF10B4026899
:1056F0001346511C016013F8021B0360D31C54783D
:10570000036093781B0443EA0423141D0460D078DB
:105710005DF8044B0B4343EA0060704712B370B569
:105720000446864604E0981B17D114EB0C0C15D0E8
:105730001EF8013BA3F14100192811F8010BA0F15B
:10574000410598BF2033192DA2EB0E0C00F1200665
:10575000E9D91B1A04D10028E7D170BD604670BD9D
:10576000184670BD1046704710B402888378184CF4
:1057700002F0030101EB4101013B03EB810304EB68
:105780004303C178B3F8FC30A2F5FA62920840F204
:10579000B55404FB02334A1E1344017942798479DB
:1057A000008903EB430301EBC301C1EB0111094B7A
:1057B00002EB8102C2EB0212234403EB82030021BD
:1057C0004FF47A72C3FB02015DF8044B704700BFCF
:1057D000C4D9070880436D38F8B516461F460446FD
:1057E000394630464FF47A72002375F0DFF83C4DAD
:1057F0003C4B054483FB05602844E917C1EB60116D
:1058000083FB01030B44384EC817C0EB631086FBC3
:10581000003CC317354EC3EBAC0386FB03764FEA5F
:10582000E37ECEEBE61EC1EB0116A5EB860CC0EBCA
:105830000015A1EB8501617103EB4301A0EBC100F1
:1058400040F2B55101FB1E33B3F5896F84F806C0F1
:1058500020714FEA8E0637DA40F2DA218B4239DCCA
:10586000B3F5B77FB4BF4FF0000E4FF0010E2049E3
:105870000EEB4E0001EBC0017546B1F812014FEA84
:105880004E071C4907EB0E0C01EBCC0C0CF1160C6F
:105890000B2101E03CF8020D984212DD0139F9D1EB
:1058A0001349774401EBC701B1F8FC000121013332
:1058B00006F5FA6E1B1A7544A170E37022812580EB
:1058C000F8BD0131C9B2F2E7032540F29650AE4669
:1058D0000627D6E7022540F22940AE460427D0E746
:1058E00080BC92C789888888ABAAAA2A73B06D1633
:1058F000C4D90708C0DA070830B52F4C86460D46D4
:105900000FCC8DB0EC46ACE80F000FCCACE80F002C
:1059100094E80F001EF0030F8CE80F000FD1274B07
:10592000274A03FB0EF3B2EBB30F43D3254AB2EB86
:10593000331F34BF01220022C2F11D0200E01C22ED
:105940000EF1FF33002B019240F26D12194602FB5B
:105950000EF2B8BF0EF1020102EBA1021A491B4C74
:1059600081FB0301DB17A3EB61100244C3EBE113DE
:105970001A44253284FB02311144D317C3EBA1032F
:10598000C3EBC303D31AADF10402EE4602EB85016B
:105990005EF8040FC21884FB023C9444D317C3EB97
:1059A000AC03C3EBC3037145A2EB0303F0D1C01AF0
:1059B0000DB030BD1D22C3E720DB0708295C8FC274
:1059C000285C8F020AD7A3001F85EB5193244992CC
:1059D0000D4B10B5D3E9424354EA030209D1014605
:1059E00040F201130020C1F802308871088008815C
:1059F00010BD064AD2F83C28121943F10003FFF704
:105A0000EBFE012010BD00BF58440020682200209A
:105A100088422DE9F0414FF001043DD301FB04F42D
:105A2000B0FBF4FC8C45F9D23CB3002616E0BCF187
:105A3000090F274698462C4623DD002A0CBF4FF05D
:105A4000570E4FF0370EF444B94288F800C003F106
:105A5000010306F1010610D8B0FBF5FCB4FBF1F52B
:105A600004FB1C00002EE2D1BCF1000FDFDCA142E0
:105A70000AD90CF1300C03F801CB00221A70BDE8F2
:105A8000F0814FF0300EDEE7B0FBF5FC2C4605FB55
:105A90001C00B5FBF1F5E7E78446C6E72DE9F041C8
:105AA000044694421546084609D2B4FBF2F6154B5B
:105AB00005FB16441B5D00F8013BBDE8F081B4FB1B
:105AC000F2F69642B6FBF2F70CD20E4B05FB1767C7
:105AD00005FB1644DA5D00F8012B1B5D00F8013B65
